:020000040800F2
:1000000050070020CD01000879270008A52400082A
:100010003D2700088D0A0008712E0008000000002E
:10002000000000000000000000000000692D000832
:10003000910A000800000000652D00085D2E0008F0
:10004000E7010008E7010008E7010008E7010008F0
:10005000E7010008E7010008E7010008E7010008E0
:10006000E7010008E7010008E7010008E7010008D0
:10007000E7010008E7010008E7010008E7010008C0
:10008000E7010008E7010008E7010008E7010008B0
:10009000E7010008E7010008E7010008E7010008A0
:1000A000E7010008E7010008E7010008E701000890
:1000B000652E0008E7010008E7010008E7010008D5
:1000C000E7010008E7010008E7010008E701000870
:1000D000E7010008E7010008E7010008E701000860
:1000E000E7010008E7010008E701000800F002F856
:1000F00000F05DF814A696E8000CB244B344DA456B
:1001000001D100F054F8BAE80F000FA696E83000CD
:10011000A5EB040504EB0607AAEB0704A7F101070A
:100120004FEA15154FEA3414A4F10104AC4201D38F
:1001300000F03DF813F0010F18BFFB1A43F0010364
:1001400000F001F8DBE71847984F0000B84F0000B7
:10015000103A24BF78C878C1FAD8520724BF30C8F3
:1001600030C144BF04680C60704700007047000055
:100170000023002400250026103A28BF78C1FBD8B0
:10018000520728BF30C148BF0B607047662904F092
:100190004684002070471FB500F002FB04000020D9
:1001A000002104F00FF8E0601FBD10B510BD00F095
:1001B000F7FB1146FFF7EFFF03F0C0FA00F015FC64
:1001C00003B4FFF7F2FF03BC00F058FC0948804776
:1001D00009480047FEE7FEE7FEE7FEE7FEE7FEE729
:1001E000FEE7FEE7FEE7FEE704480549054A064B41
:1001F00070470000612E0008ED000008500100204B
:100200005007002050030020500300200FB41CB5FD
:10021000074B06AA7B4469460090059800F0A7FAB0
:100220000020694600F0B6FA1CBC5DF814FB000023
:100230007D0500002DE9F0474FF0000A894604468D
:10024000C0F820A02046E1688847002876D02528FD
:1002500006D0D4E901219047206A401C2062F1E7D2
:10026000E168204600258847C4F81CA00646002700
:10027000C4F818A02A2E09D0304603F09BFF38B3EB
:1002800004EB8708303EC8F8186019E059F8041BE1
:10029000204604EB87029161E1688847012F0646FA
:1002A00018D1E069002820DA25F020051DE0D8F8F3
:1002B000180000EB800006EB40003038C8F818004A
:1002C0002046E1688847064603F074FF0028EED117
:1002D000012F0AD02E2E08D12046E16888477F1CC6
:1002E0000646022F45F02005C4DBA069002803DA8A
:1002F000404245F00105A061E80701D025F0100556
:10030000B6B1A6F14100192802D8203645F400659F
:100310004A463146204625604D46FFF737FF58B123
:10032000012806D0ED1D25F0070000F1080989E736
:1003300004E005F1040985E730468AE7206ABDE854
:10034000F0877047704770472DE9FF4F0C461E46F7
:100350004FF0FF378BB0D2E90001DDF860800A90E2
:100360008A46C1F30A5505B93D46002108464FF0BB
:100370000000BAF1000F00F4400005DA00EB800045
:100380004FF4400101EA50004FEA9059B9F1010FD2
:1003900000DDB9460A9850EA4A000ED044F61050E3
:1003A000A5F2FF3545432F14B8F1000F1ED075425A
:1003B000291E1EDDC9F100021CE0B8F1010F4FF04B
:1003C000000001D0302103E0F24305E02154401C3D
:1003D000B042FBDB30460022002121540B99C1F8CA
:1003E0000880C1E900200FB0BDE8F08FBD1B6D1C77
:1003F000DEE74A4600DA694206A800F05BFA06AB7F
:1004000093E8070003AB83E8070050460A9903F01E
:10041000F5FA8DE80700A0F500501F38009003980A
:10042000002D0ADD42F21F014A460844002303A9B9
:100430000390684603F05EFD09E0A0F500504A46CF
:100440001F38002303A90390684603F068FD8DE878
:1004500007000004000C03D04FF0FF30410800E01B
:100460001046B8F1000F03D00022009215461EE09E
:10047000751E05D400F098F9303262556D1EF9D51D
:10048000B3460122084302D000227F1C04E02078FA
:10049000302801D100227F1E002A099784D01DE058
:1004A000112D07DA00F080F9303262556D1C50EAE8
:1004B0000102F5D1084302D00098C8B10EE0002136
:1004C000681E05E0235C625C63542254401E491C94
:1004D0008142F7DBAB46A81B401E0990002004F8C0
:1004E0000B000B98099AC0F80880C0E9002B7AE746
:1004F00011264FF0000857E72DE9F04F88460446D3
:10050000D21D22F0070191B0D1E90001CDE90A0125
:1005100003F03CFE02460B98C00F01D02D2007E0EF
:100520002068810701D52B2002E0202101EAC000CC
:10053000032A099001D0072A05DB034641462046DD
:1005400000F078F90BE12078800601D5E06900E041
:100550000620B8F1650F814606D0B8F1660F18D0B5
:10056000B8F1670F70D131E00020B9F1110F0090A0
:1005700001DB112301E009F101030AAA01A90CA87A
:10058000FFF7E2FEDDE90C70002609F10105834664
:1005900047E001204B4600904FF000470AAA01A90E
:1005A0000CA8FFF7D1FEDDE90DB00C995D460026E1
:1005B00010B909F101000D18B9EB050003D4C0F121
:1005C000FF3609F10105A5EB09002BE0B9F1010F98
:1005D00001DA4FF001090020B9F1110F00904846EF
:1005E00001DD112300E003460AAA01A90CA8FFF7C8
:1005F000ABFEDDE90C704D460026834620780007EF
:100600000AD4AB4500DA5D4601A8012D04DD41198D
:1006100011F8011C302907D04F4502DA17F1040FF9
:1006200004DA012082460FE06D1EEEE7002F02DCA7
:10063000ED1B3E4403E0781CA84200DD7D1CB81B86
:1006400000F1010A4FF000472078000703D4AA45C3
:1006500001DB4FF0FF3A0021B7F1004F0DF14308E5
:100660008DF8431024D002202B23002F01DA7F4283
:100670002D230A21021EA0F1010000DC5FB197FBCF
:10068000F1FC97FBF1F201FB1C7C17460CF1300CDE
:1006900008F801CDEEE7A8F10100037021880905F3
:1006A00001D5452100E06521A0F1010800F8011CF9
:1006B00009980FA9A1EB0807FF1D00B101204119FE
:1006C00001EBEA70A1693844081A401EA061207845
:1006D000C00602D42046AFF30080099828B1D4E9BF
:1006E00001219047206A401C20622078C00622D554
:1006F0002046AFF300801EE0002E04DBB34502DD90
:1007000001A8805D00E03020D4E901219047206AF3
:10071000401C2062761CAAF101005FEA000A0AD19F
:1007200000F03EF8C0680168405CD4E901219047C0
:10073000206A401C2062281EA5F10105DCDC07E0D0
:10074000D4E9012118F8010B9047206A401C20626F
:10075000381EA7F10107F3DC2046AFF30080032029
:1007600011B041E601694A1C02610878704700B582
:100770008FB0CDE901310021059105497944CDE9DA
:10078000031011466846FFF755FD0FB000BD00008D
:10079000E5FFFFFF0A6802F8010B0A6070470000DE
:1007A000004870473800002030B5B0F10A0271F1FE
:1007B00000034FEA900E4EEA817EB0EB0E0061EB33
:1007C00091014FEA101E4EEA017E10EB0E0041EB44
:1007D00011114FEA102E4EEA016E10EB0E0041EBA4
:1007E00011214FEA104E4EEA014E10EB0E0041EB84
:1007F0001141401841F100014FEAD00040EA417038
:100800004FEAD1014FEA810444EA907410EB80056D
:1008100044EB01046D1944EB0404521BA3414FF057
:10082000000348BF0A3200D530BD401C41F1000131
:1008300030BD00002DE9F0411F4604460326016843
:10084000072A01F4006004DB08B116A505E016A52F
:1008500003E008B115A500E015A521F01000206007
:10086000A069C01EA0610FB1401EA0612046AFF379
:1008700000804FB1D4E9012138469047206A401CDE
:100880002062C01C206206E0206AFAE7D4E9012158
:1008900015F8010B9047761EF8D22046AFF3008082
:1008A000BDE8F0814E414E006E616E00494E46003B
:1008B000696E66002DE9F047814616468AB03548D4
:1008C00078440DC88DE80D0032487844801C03AC94
:1008D0000DC884E80D0041F69B300844372190FB99
:1008E000F1F290FBF1F5A5F1800501FB12041B3C30
:1008F00002D56442012000E00020DFF898A0804685
:100900000027FA44AAF1BE0A0EE0E0070AD03246F8
:10091000684607EB470101230AEB810103F0FFFA68
:100920008DE8070064107F1C002CEED1194F7F4426
:10093000AE3F19E0E80715D007EB04100DF1180AD7
:1009400090E80E008AE80E00C068F04201D19819C4
:1009500008903246012306A903A803F0E0FA03AB8E
:1009600083E807006D10641C002DE3D14FF00103F4
:1009700032466946B8F1000F03A802D003F0BAFA74
:1009800001E003F0CCFAC9E90001C9F808200AB077
:10099000BDE8F087DC4100000048704718000020E7
:1009A0007546FFF7F9FFAE4605006946534620F04D
:1009B0000700854618B020B5FFF716FCBDE82040BB
:1009C0004FF000064FF000074FF000084FF0000B0B
:1009D000AC46ACE8C009ACE8C009ACE8C009ACE87A
:1009E000C00921F007018D46704710B50446AFF3EA
:1009F00000802046BDE81040FFF7E2BB4FF0013C0D
:100A000050F8042B51F8043B9A4221D1A2EB0C037D
:100A1000934313EACC1317D150F8042B51F8043B3D
:100A20009A4215D1A2EB0C03934313EACC130BD1DA
:100A300050F8042B51F8043B9A4209D1A2EB0C0365
:100A4000934313EACC13DBD04FF00000704700BF94
:100A5000D01A01BAB1FA81F101F0180122FA01F0BD
:100A6000CB40DBB2C0B2C01AC1F120012CFA01F3B5
:100A7000D11A914311EAC311E6D1704701491820F8
:100A8000ABBEFEE72600020070470000FEE7000054
:100A900070470000EFF3108072B600BFFEE7000061
:100AA0002DE9F04F87B040F27902C2F200021378CC
:100AB000507883F0010C059080F00100917840EAB5
:100AC0000C00B0FA80F04FEA5018481ED678B0FA01
:100AD00080F0400903930B46049008EA000B701E57
:100AE0001179B0FA80F04FEA501E481EB0FA80F03B
:100AF00055790BEA0E09400909EA0004681EB0FAAC
:100B000080F04709907902943C40471EB7FA87F776
:100B10007F0901943C40D27940F28307012CC2F254
:100B200000070094069608BF012A1BD03C46B6FA7F
:100B300086F74FEA571A0BEA0A07012F08BF012967
:100B40002ED0B1FA81F77F0909EA0709B9F1010F3F
:100B50000FD1012D1E460DD101280BD1012A25D020
:100B600008E000BF4FF000093C46A7F800904FF0A6
:100B7000000A1E46B6FA86F77F0907EA0807012F22
:100B80001CD1BAF1000F19D0012917D1012D15D1AF
:100B9000012813D1012A11D10120FC2108E000BF56
:100BA000012DCED10128CCD1012ACAD100210020AB
:100BB0002170607007B0BDE8F08F00BF07EA0E0734
:100BC000012F08BF012943D0DDF81480DDF818E0BB
:100BD0005CEA080C08BF002E44D0BCFA8CF7049BDA
:100BE0007F093B40012B08BFBEF1010F48D0039B9A
:100BF000002B08BFB8F1000F4ED0002B08BFB8F192
:100C0000010F59D0B5FA85F1490909EA0103012B11
:100C100008BF012864D0029B1940012908BF0128A0
:100C200064D0B0FA80F040090140012908BF012AD0
:100C300062D001990840012808BF012A60D0B2FAA9
:100C400082F1490908425FD005200B21B0E700BFBF
:100C5000012DB9D10128B7D1012AB5D10220FB213C
:100C6000A6E700BFBEF1010FB7D10129B5D1012D13
:100C7000B3D10128B1D1012AAFD10320F92197E7DF
:100C80000129B4D1012DB2D10128B0D1012AAED1B0
:100C90000420F7218CE700BF012EAED1BEF1010F79
:100CA000ABD10129A9D1012DA7D10128A5D1012AB4
:100CB000A3D10520F5217BE7012EA3D1BEF1010FC1
:100CC000A0D101297FF49EAF012D7FF49BAF0128B5
:100CD0007FF498AF012A7FF495AF0620F12167E7F2
:100CE000012A7FF498AF0120042161E7012A7FF4F3
:100CF00098AF022005215BE70320072158E700BFDA
:100D00000420092154E700BF0098084001287FF41F
:100D100051AF06200F214BE770B540F2830040F23F
:100D20008106C2F20000C2F20006317890F900405C
:100D300008193070204603F0B1FC49F69A11C3F649
:100D4000997103F02BFD96F901100546601A03F026
:100D5000A5FC0021C4F2201103F020FD294603F078
:100D6000B5FB03F07FFC40F20801C2F20001096804
:100D700074700A18081A40F20C01C2F200010968E6
:100D800040F2B00540F2B404C2F20005C2F2000421
:100D90008A420B462A60206005DC002A02DD884278
:100DA00004DD06E001232B60884202DC002801DC20
:100DB000012121600FA20420042101F045FF2A68CF
:100DC00004200621022301F0E5FE0BA204200A21E3
:100DD00001F03AFF226804200C21022301F0DAFE20
:100DE0002968012001F0C2FF21680220BDE870409F
:100DF00001F0BCBF4C3A0000523A0000B0B50446C6
:100E000000F024F9054640F20000C2F2000000782C
:100E1000611C18BF044400BF00F018F9401BA04239
:100E2000FAD3B0BD2DE9F04F82B00E68002E00F06D
:100E3000FD8041F20042C4F20102042340F2004E60
:100E4000904208BF03234FF6FF7CC4F2010E0093CB
:100E500000240123C1F2100C4FF0000A4FF00009EA
:100E600044E000BF012704F00C030F229A402BEA54
:100E7000020207FA03F34FEA9A051A4346F82520BF
:100E80004E6840F20C45F202DEF8082054BF22EA18
:100E9000080242EA0802C4F20105CEF808202A68D6
:100EA000B30254BF22EA080242EA08022A60B303EE
:100EB000DEF8042054BF22EA080242EA0802F303E3
:100EC000CEF80420DEF800204FF0010354BF22EAE0
:100ED000080242EA0802CEF800200E680AF1010A70
:100EE00036FA0AF204F1040400F0A08003FA0AFBC7
:100EF00016EA0B08F1D04E68664511DC122E55D863
:100F0000DFE806F0340A44485454545454545454BA
:100F100054545454544C5000D1F80C9046E000BF47
:100F20004FF6FF72C1F2210296420FDC0022C1F29D
:100F3000110296421AD00022C1F21202964215D036
:100F40000022C1F22102964210D02FE00022C1F20D
:100F5000220296420AD00022C1F23102964205D006
:100F60000022C1F23202964220D100BF8A684AB103
:100F7000012A14BFC0F814B0C0F810B04FF008092F
:100F800014E000BF4FF0040910E000BFCA6802F18E
:100F900008090BE04FF0000908E000BFCA6802F141
:100FA000040903E0CA6802F10C0900BF22460646A4
:100FB000B8F5807F24BF203A043637680F25954066
:100FC00027EA050509FA02F22A433260CA79D206F5
:100FD0007FF583AF41F21803C4F202031A68AEF53D
:100FE0007E7642F001021A601A6802F00102019254
:100FF000019A2AF0030256F802B040F60002C4F249
:101000000102904210D040F60042C4F20102904228
:101010003FF428AF41F20002C4F20102009F904267
:1010200008BF02271FE700BF00271CE702B0BDE88A
:10103000F08F00008068084018BF01207047000052
:10104000002A08BF090401617047000040F24810FF
:10105000C2F200000068704740F2000040F2481100
:10106000C2F20000C2F2000100780A681044086071
:101070007047000080B542F20000C4F2020001682F
:1010800041F010010160032000F08CF80F2000F007
:1010900005F800F027F8002080BD000070B540F290
:1010A0000006C2F2000640F210013278C2F20001DE
:1010B0004FF47A730968B3FBF2F20446B1FBF2F124
:1010C000084600F061FB0F2C4FF0010508D838B935
:1010D0004FF0FF3021460022002500F037F8746001
:1010E000284670BD82B041F21800C4F202000168C7
:1010F000022241F001010160016801F0010101914A
:101100000199416841F080514160406800F0805091
:10111000009000980420C4F20100016862F31A6193
:10112000016002B070470000002848BF704700F01F
:101130001F01012202FA01F11C2202EAD0004EF244
:101140000012CEF2000281507047000010B54EF63A
:101150000C5CCEF2000CDCF80030C3F3022E8EF0F3
:101160000704042C28BF0424BEF103034FF0FF3E04
:101170000EFA04F438BF0023A14399400EFA03F39A
:101180009A43114300F00F0200F160430901043A51
:1011900003F564436244002848BF02F10C03197050
:1011A00010BD00004EF60C51CEF200010A684FF659
:1011B000FF031A4060F30A2242F0806040F0FD70A5
:1011C00008607047002804BF012070472DE9F043F4
:1011D00081B042F20008C4F202080446D8F80000C8
:1011E0000D4600F0070088420CD2D8F8000020F02D
:1011F00007002843C8F80000D8F8000000F00700F6
:10120000A8426CD1206841F204098107C4F20209A6
:1012100017D5410705D5D9F8001041F4E061C9F8A8
:101220000010010705D5D9F8001041F46051C9F844
:101230000010D9F80010A26821F0F0011143C9F89C
:101240000010C00742D1D8F8000000F00700A84203
:101250000CD9D8F8000020F007002843C8F8000097
:10126000D8F8000000F00700A84238D120684107F4
:1012700007D5D9F80010E26821F4E0611143C9F8FC
:101280000010000708D5D9F80000216920F460504B
:1012900040EAC100C9F80000D9F8002002F00C00B3
:1012A000082841F20020C0F27A0051D145F2BA0379
:1012B000C2F38341C0F60003595CD2033CD440F62C
:1012C0000010C0F23D00484342E000BF60680228C1
:1012D0000AD001282AD159F8041C890308D4012016
:1012E00001B0BDE8F08300BF59F8041C8901F6D5B0
:1012F000D9F8001021F003010843C9F80000FFF7F6
:10130000A5FE064641F28837D9F80000616800F072
:101310000C00B0EB810F96D0FFF798FE801BB8420F
:10132000F2D9032001B0BDE8F08300BF59F8041CD6
:101330008907D4D5DCE700BFD9F8002044F6C823DC
:10134000C2F34042C0F600039A5C4843B0FBF2F09F
:10135000D9F8001044F6B822C1F30311C0F6000218
:10136000515C40F2100220FA01F140F20400C2F296
:1013700000000068C2F200021160FFF78FFE00203B
:1013800001B0BDE8F0830000002804BF01207047D1
:101390002DE9F04182B00446007841F20006C00712
:1013A000C4F202060CD0706800F00C00042840F073
:1013B00081803068800303D56068002800F04E818A
:1013C000207880071BD5706810F00C0F09D070686A
:1013D00000F00C00082840F08B807068C00300F11A
:1013E00087803068800703D52069012840F0368166
:1013F0003068616920F0F80040EAC1003060207870
:10140000000713D4207840072CD4E569002D00F0A4
:101410002081706800F00C00082840F0AF80012D9A
:1014200040F00C81012002B0BDE8F081A0690028E5
:1014300000F08C800020C4F242200121C0F880140A
:10144000FFF704FE054600BF706A800700F1BA800E
:10145000FFF7FCFD401B0228F6D9032002B0BDE8CF
:10146000F08100BFF0695FEAC00808D4F06940F07D
:101470008050F061F06900F080500090009847F2D1
:101480000007C4F200073868C0054DD4386840F43E
:1014900080703860FFF7DAFD054600BF3868C00588
:1014A00042D4FFF7D3FD401B6428F7D9032002B0D4
:1014B000BDE8F081706800F00C00082803D1706866
:1014C000C0033FF576AF6068002800F00981B0F5F1
:1014D000A02F00F01D81B0F5803F00F01D81306825
:1014E00020F480303060306820F4802017E100BFA5
:1014F0002069002840F20000C4F2422000F08C80F5
:1015000001210160FFF7A2FD054600BF306880079A
:101510003FF56EAFFFF79AFD401B0228F6D9032076
:1015200002B0BDE8F08100BFE068002800F09A80BA
:10153000052800F0B180012800F0B280306A20F068
:1015400001003062306A20F00400ACE00020C4F2F8
:1015500042200021C0F88014FFF778FD054600BF47
:10156000706A80077FF54EAFFFF770FD401B0228C1
:10157000F6D9032002B0BDE8F08100BF0027C4F215
:10158000422700203866FFF761FD022D05460DD188
:101590003068800140F1D680FFF758FD401B0228DB
:1015A0004FF00300F4D902B0BDE8F081306880014B
:1015B0004FD5FFF74BFD401B02284FF00300F5D934
:1015C000F1E700BF40F21000C2F20000006844F6EC
:1015D000D351C1F26201A0FB0101480A019000BF92
:1015E00000BF0198411E002801913FF40BAF00BFDE
:1015F0000198411E002801913FF404AF00BF0198FB
:10160000411E002801913FF4FDAE00BF0198411E2C
:1016100000280191E4D1F5E600210160FFF716FDF5
:10162000054600BF306880077FF5E9AEFFF70EFD85
:10163000401B02284FF00300F4D9B4E77068216A18
:1016400000F480328A4209D1616A00F47010884245
:1016500004D1002002B0BDE8F08100BF012002B03B
:10166000BDE8F081306A20F001003062306A20F07D
:1016700004003062FFF7EAFC054641F2883700BFFC
:10168000306A800722D5FFF7E1FC401BB8424FF0DB
:101690000300F5D987E700BF306A40F004003062EC
:1016A000306A40F001003062FFF7D0FC054641F29D
:1016B000883700BF306A800708D4FFF7C7FC401B9B
:1016C000B842F7D9032002B0BDE8F081B8F1000FAD
:1016D0003FF59BAEF06920F08050F06195E600BFC9
:1016E000306820F480303060306820F48020306032
:1016F000FFF7ACFC054600BF306880037FF560AEA5
:10170000FFF7A4FC401B64284FF00300F4D94AE71C
:10171000306840F480203060306840F480303060C1
:10172000FFF794FC054600BF306880033FF548AEE4
:10173000FFF78CFC401B6428F6D9032002B0BDE8FB
:10174000F08100BF206AB0F5803F05D17168A268C2
:1017500021F40031114371607168626A21F47411DF
:1017600011430843706001203866FFF76FFC0446A0
:10177000306880013FF56DAFFFF768FC001B022861
:101780004FF00300F4D90EE7411E0020B0EB116FBB
:101790001CBF012070474EF21002CEF200025160D1
:1017A0004EF62351CEF20001F0230B70072190601A
:1017B00011607047704700007047000090F83C20AF
:1017C000012A4FF0020236D010B580F83D200268A1
:1017D000D2F804E0D2F808C00C682EF0700323435E
:1017E00040F2FF74C4F20004A24253600ADCB2F17A
:1017F000804F13D040F20043C4F200039A420DD050
:1018000011E000BF42F60043C4F201039A4205D042
:1018100040F60003C4F200039A4204D149682CF058
:101820008003194391600121002280F83D1080F867
:101830003C20BDE81040104670470000002804BF5F
:101840000120704710B5044690F83D0028B90020EB
:1018500084F83C00204600F067F8022084F83D0040
:10186000206840F2FF730268C4F2000342F6004CA5
:101870009842C4F2010C15DCB0F1804F1AD040F24E
:101880000041C4F20001884214D0984218DCB0F143
:10189000804F1DD040F20041C4F20001884217D0B1
:1018A0001AE000BF604505D040F60001C4F2000117
:1018B0008842EAD1A16822F070020A439842E6DD2C
:1018C000604505D040F60001C4F20001884203D112
:1018D000216922F440720A43A36922F08001D4F8FE
:1018E00004E0E268194360450160C262C0F828E084
:1018F00002D16169CCF8301001214161002084F8E7
:10190000461084F83E1084F83F1084F8401084F8A4
:10191000411084F8421084F8431084F8441084F88D
:10192000451084F83D1010BD80B582B0006840F2CB
:101930000041C4F2000188421AD0B0F1804F24D196
:1019400041F21C00C4F202000168002241F00101D2
:1019500001600068002100F00100019001981C2046
:10196000FFF7F4FB1C2002B0BDE88040FFF7DCBBB2
:1019700041F21C00C4F20200016841F00201016062
:10198000006800F002000090009802B080BD0000E6
:1019900090F83D1001291CBF01207047022180F8FA
:1019A0003D10006840F2FF71C4F20001884209DC7A
:1019B000B0F1804F12D040F20041C4F200018842E1
:1019C0000CD012E042F60041C4F20101884205D079
:1019D00040F60001C4F20001884206D1816801F09E
:1019E0000701062904BF00207047016841F001018A
:1019F00001600020704700000146006841F21113A9
:101A0000026A1A4204D00122002081F83D2070476A
:101A1000026A40F244431A42F5D1026822F0010200
:101A200002600122002081F83D20704790F83C20A0
:101A3000012A4FF0020200F0C58080B580F83D20F9
:101A4000D0F800C04FF67772DCF8083023EA0202C3
:101A5000CCF808200B684F2B28DC1F2B44DD202BF3
:101A600045D0302B43D0402B40F0AE80D1F804E07D
:101A7000C968DCF82030DCF8202022F00102CCF824
:101A80002020DCF8182022F0F00242EA011123F0B5
:101A90000A0242EA0E02CCF81810CCF82020DCF83A
:101AA000081041F0470121F0300180E06F2B27DD65
:101AB000B3F5005F48D0B3F5805F7AD0702B40F06B
:101AC0008380D1E901E3C968DCF8082043EA0E030A
:101AD00022F47F4243EA01211143CCF80810DCF8DC
:101AE000081041F0770162E00BB1102B6CD1DCF8EB
:101AF000081021F07001194341F0070157E000BFC1
:101B0000502B35D0602B5FD1D1F804E0C968DCF8E8
:101B10002030DCF8202022F01002CCF82020DCF865
:101B2000182022F4704242EA013123F0A00242EA76
:101B30000E12CCF81810CCF82020DCF8081041F078
:101B4000670121F0100132E0D1E901E3C968DCF856
:101B5000082043EA0E0322F47F4243EA01211143A5
:101B6000CCF80810DCF8081041F480411FE000BFF9
:101B7000D1F804E0C968DCF82030DCF8202022F03D
:101B80000102CCF82020DCF8182022F0F00242EA12
:101B9000011123F00A0242EA0E02CCF81810CCF828
:101BA0002020DCF8081041F0570121F02001CCF88A
:101BB00008100022012180F83D10002180F83C101F
:101BC000BDE88040104670470122F3E770470000EF
:101BD00010B5016804460869800744BFC8685FEA19
:101BE000807039D40869400744BFC8685FEA407014
:101BF0003ED40869000744BFC8685FEA007045D456
:101C00000869C00644BFC8685FEAC0604AD4086972
:101C1000C0071CBFC8685FEAC07051D108690006E0
:101C200044BFC8685FEA006052D40869400644BFF8
:101C3000C8685FEA406053D40869800646BFC86838
:101C40005FEA806010BD6FF0200220460A61BDE8A7
:101C50001040FFF7B1BD00BF6FF002000861012026
:101C600020778869800743D02046FFF7AFFF45E023
:101C70006FF00400086102202077886910F4407F2B
:101C800040D02046FFF7A2FF42E000BF6FF00800FF
:101C9000086104202077C86980073DD02046FFF7FF
:101CA00095FF3FE06FF01000086108202077C869B9
:101CB00010F4407F3AD02046FFF788FF3CE000BF99
:101CC0006FF001000861204600F024FA2168A5E7C2
:101CD0006FF0800008612046FFF76CFD2168A4E7E3
:101CE0006FF040000861204600F016FA2168A3E773
:101CF000204600F025F8204600F09CF921680020DD
:101D000020776FE7204600F01BF8204600F092F99C
:101D10002168002020776CE7204600F011F820466B
:101D200000F088F921680020207769E7204600F05C
:101D300007F8204600F07EF921680020207766E74A
:101D40007047000090F83C30012B04BF0220704720
:101D50004FEAB202032A3DD82DE9F043DFE802F052
:101D600002407CB6036842F600461D6A1A6AC4F255
:101D7000010622F001021A621A465C6852F818CF76
:101D8000B3428E68D1F800E025F0020545EA060569
:101D90000CD1CE68D1E9057824F4407425F00C0507
:101DA00026F004063C43354344EA08042CF073074C
:101DB00047EA0E075C609F614F6809695F631D62B7
:101DC0009F6947F008079F619F6927F004079F619B
:101DD000ACE000BF0121002280F83C20084670479B
:101DE000036842F600461D6A1A6AC4F2010622F030
:101DF00010021A621A46D3F804C052F8184FB342C0
:101E00008E68D1F800E025F0200545EA06150FD1CF
:101E1000CE68D1E905986FF0400725F0C00507EAC4
:101E2000061635432CF4406748EA090647EA860C53
:101E300024F4E64444EA0E27C3F804C09F614F68C7
:101E400009699F631D629F6947F400679F619F69ED
:101E500027F480679F6168E0036842F600461D6AC8
:101E60001A6AC4F2010622F480721A621A46D3F882
:101E700004C052F81CEFB3428E680C6825F400755C
:101E800045EA06250FD1CE68D1E90598360240F221
:101E9000FF4725F44065BE4335432CF4405748EADC
:101EA000090647EA061C2EF073072743C3F804C04F
:101EB000DF614F680969DF631D62DF6947F008076A
:101EC000DF61DF6927F00407DF612FE0036842F676
:101ED0000047D3F820C01A6AC4F2010722F48052E6
:101EE0001A621A465C6852F81C5FD1F800E08E68EE
:101EF000BB4204D14F6924F4804444EA87142CF493
:101F0000005747EA063725F4E64646EA0E265C60A7
:101F1000DE614E6809691E641F62DF6947F400676D
:101F2000DF61DF6927F48067DF6109021368194305
:101F300011600021BDE8F043002280F83C200846F3
:101F400070470000002804BF0120704710B5044608
:101F500090F83D0028B9002084F83C00204600F0AD
:101F600067F8022084F83D00206840F2FF730268A1
:101F7000C4F2000342F6004C9842C4F2010C15DC96
:101F8000B0F1804F1AD040F20041C4F20001884203
:101F900014D0984218DCB0F1804F1DD040F20041BF
:101FA000C4F20001884217D01AE000BF604505D096
:101FB00040F60001C4F200018842EAD1A16822F093
:101FC00070020A439842E6DD604505D040F6000104
:101FD000C4F20001884203D1216922F440720A430D
:101FE000A36922F08001D4F804E0E2681943604557
:101FF0000160C262C0F828E002D16169CCF83010FB
:1020000001214161002084F8461084F83E1084F8D4
:102010003F1084F8401084F8411084F8421084F88E
:10202000431084F8441084F8451084F83D1010BD26
:10203000704700007047000041B1082910D0042902
:1020400014BF00F1410200F13F020BE090F83E2086
:10205000012A1CBF01207047022280F83E2013E0B5
:1020600000F140021278012A1CBF012070470222B1
:10207000082907D0042914BF80F8412080F83F20A8
:1020800002E000BF80F84020006801F01F0101223B
:10209000036A8A4023EA02010162036A42F644416C
:1020A000C4F201011A43A1F14403984202620FD025
:1020B00040F2FF71C4F20001884213DCB0F1804F9E
:1020C0001CD040F20041C4F20001884216D01AE050
:1020D0000A6842F400420A6040F2FF71C4F2000153
:1020E0008842EBDD42F60041C4F20101884205D08E
:1020F00040F60001C4F20001884204D1816801F079
:102100000701062903D0016841F0010101600020A8
:1021100070470000704700007047000010B540F2A3
:10212000B800C2F20000FFF733FC40F60044C4F2EE
:102130000104204640210022FEF782FF20464FF492
:1021400080510022FEF77CFFA4F580604FF400610F
:102150000022BDE81040FEF773BF000070B521A259
:102160000220032100F070FD40F28806C2F2000652
:10217000F06802F07FF945F2D70506F11804C0F6C1
:10218000000502460B4620462946FEF73FF819A2F5
:102190000320012100F058FD03200121224600F018
:1021A00053FDB06802F066F902460B462046294608
:1021B000FEF72CF803200621224600F045FD306989
:1021C00002F058F902460B4620462946FEF71EF853
:1021D00003200B21224600F037FD6420BDE870404B
:1021E000FEF70CBE44495354414E43453A20636DBB
:1021F000000000002020202020202020202020205F
:1022000020202000F0B581B040F60044C4F2010463
:1022100020464FF480510122FEF712FF40F2B8052C
:10222000C2F200052846FFF7E7FB2868002141625B
:102230002846FFF7ADFB2868416A092908D8416A9A
:10224000092905D8416A092902D8416A0A29F3D324
:1022500020464FF480510022FEF7F2FEFEF7F6FE14
:1022600040F28806C2F20006706100BF20464FF4BB
:102270000051FEF7DFFE30B9706900F10A07FEF782
:10228000E5FE8742F2D82868406A3060FEF7DEFE3D
:10229000706100BF20464FF40051FEF7CBFE30B115
:1022A000706900F13207FEF7D1FE8742F2D8286844
:1022B000406A31687060401A01F0CBFF4CF29C42DA
:1022C00046F67203CBF22002C3F6A17301F0D4FFED
:1022D0000023C3F6E073002201F0CEFF01F088FF77
:1022E000F06001B0F0BD0000F0B581B040F60044F0
:1022F000C4F20104204640210122FEF7A1FE40F273
:10230000B805C2F200052846FFF776FB28680021D1
:1023100041622846FFF73CFB286800BF416A092953
:1023200008D8416A092905D8416A092902D8416AB1
:102330000A29F3D3204640210022FEF781FEFEF752
:1023400085FE40F28806C2F20006706120468021B8
:10235000FEF770FE30B9706900F10A07FEF776FEED
:102360008742F3D82868406A3060FEF76FFE7061DC
:1023700020468021FEF75EFE30B1706900F1320721
:10238000FEF764FE8742F3D82868406A31687060BF
:10239000401A01F05EFF4CF29C4246F67203CBF20B
:1023A0002002C3F6A17301F067FF0023C3F6E073B8
:1023B000002201F061FF01F01BFFB06001B0F0BD31
:1023C000F0B581B040F60004C4F2010420464FF499
:1023D00000610122FEF734FE40F2B805C2F20005AA
:1023E0002846FFF709FB2868002141622846FFF7CD
:1023F000CFFA2868416A092908D8416A092905D80D
:10240000416A092902D8416A0A29F3D320464FF4C8
:1024100000610022FEF714FEFEF718FE40F2880667
:10242000C2F20006706100BF20464FF48051FEF7F3
:1024300001FE30B9706900F10A07FEF707FE874216
:10244000F2D82868406A3060FEF700FE706100BF75
:1024500020464FF48051FEF7EDFD30B1706900F178
:102460003207FEF7F3FD8742F2D82868406A3168E8
:102470007060401A01F0EDFE4CF29C4246F6720389
:10248000CBF22002C3F6A17301F0F6FE0023C3F6DF
:10249000E073002201F0F0FE01F0AAFE306101B00D
:1024A000F0BD0000FEE700002DE9F04784B041F2E6
:1024B0001800C4F20200016840F6000841F0200153
:1024C00001600168C4F2010801F020010091009947
:1024D0000168002241F0040101600168002701F059
:1024E000040100910099016841F008010160006851
:1024F0004FF40E6100F00800009000984046FEF78F
:102500009FFD08F58064204641F250710022FEF7DD
:1025100097FDE0206E46009001254FF002094046ED
:102520003146CDE90157CDF80C90FEF77BFC4FF416
:10253000BA508DE8A1004FF0030A20463146CDF88D
:102540000CA0FEF76FFC4CF62000CDE900072046FA
:1025500031460295FEF766FC4FF40250CDE90007C4
:10256000204631460297FEF75DFC4FF48070CDE9BE
:102570000007404631460295FEF754FC4FF40060D8
:102580008DE8A10440463146FEF74CFC4FF48050E4
:10259000CDE90007404631460297FEF743FC102084
:1025A0008DE8A10220463146FEF73CFC04B0BDE8B0
:1025B000F087000080B586B040F2B8000021C2F27A
:1025C00000004FF0804247234FF6FF7C0591CDE994
:1025D0000311CDE90011C0E90023C0E9021C01612B
:1025E0008161FFF72BF9002818BFFEF753FA4FF46B
:1025F0008050029040F2B800C2F2000002A9FFF73A
:1026000015FA002818BFFEF745FA40F2B800C2F2EA
:1026100000006946FFF7D2F8002818BFFEF73AFA23
:1026200006B080BDB0B594B040F2004540F2001055
:10263000C4F200050021C2F20000472263230E917C
:10264000CDE90C110991CDE90711CDE90511CDE9CD
:102650000311CDE90111C0E90052C0E90213016183
:102660008161FFF7EBF8002818BFFEF713FA4FF46B
:1026700080500B9040F20010C2F200000BA9FFF74F
:10268000D5F9002818BFFEF705FA40F20010C2F293
:102690000000FFF757FC002818BFFEF7FBF940F2D7
:1026A00000100024C2F2000008A9CDE90844FFF799
:1026B00085F8002818BFFEF7EDF9602001900F2083
:1026C000CDE9020440F20010C2F2000001A9082284
:1026D0000594FFF737FB002818BFFEF7DBF940F23F
:1026E0000014C2F2000401A920460C22FFF72AFBC5
:1026F000002818BFFEF7CEF920680021A8421291E9
:1027000002D014B0B0BD00BF41F21800C4F2020004
:10271000016841F008010160006810A900F008009C
:102720000F900F980320109002201190139005F540
:102730008430FEF777FB14B0B0BD0000FEE7000068
:1027400010B540F60004C4F2010404F580601021C5
:102750000022FEF775FC204620210022FEF770FCC7
:10276000204640210022FEF76BFC204680210022FB
:10277000BDE81040FEF764BCFEE7000070B540F60F
:1027800000440025C4F2010445F0B000C0B200F0DE
:1027900071FA102000F06EFA0020002600F06AFAAC
:1027A00020464FF400710122FEF74AFC20464FF408
:1027B00080710122FEF744FC20464FF40071002294
:1027C000FEF73EFC20464FF480710022FEF738FCF5
:1027D000782000F023F8402000F020F8002000F0DE
:1027E0001DF820464FF400710022FEF729FC204618
:1027F0004FF480710122FEF723FC20464FF4007154
:102800000122FEF71DFC701C46B2B6F1FF3FC7DC8B
:10281000E8B20135072828BF70BDB5E7B0B540F66E
:102820000044C4F20104054600F0800220464FF443
:102830000071FEF705FC20464FF480710122FEF77F
:10284000FFFB20464FF480710022FEF7F9FB05F0F4
:10285000400220464FF40071FEF7F2FB20464FF491
:1028600080710122FEF7ECFB20464FF480710022BC
:10287000FEF7E6FB05F0200220464FF40071FEF75C
:10288000DFFB20464FF480710122FEF7D9FB204682
:102890004FF480710022FEF7D3FB05F010022046B2
:1028A0004FF40071FEF7CCFB20464FF480710122FB
:1028B000FEF7C6FB20464FF480710022FEF7C0FBF6
:1028C00005F0080220464FF40071FEF7B9FB2046E0
:1028D0004FF480710122FEF7B3FB20464FF4807164
:1028E0000022FEF7ADFB05F0040220464FF4007114
:1028F000FEF7A6FB20464FF480710122FEF7A0FBF5
:1029000020464FF480710022FEF79AFB05F0020288
:1029100020464FF40071FEF793FB20464FF4807180
:102920000122FEF78DFB20464FF480710022FEF756
:1029300087FB05F0010220464FF40071FEF780FB93
:1029400020464FF480710122FEF77AFB20464FF4B7
:1029500080710022FEF774FB20464FF48071012243
:10296000FEF76EFB20464FF480710022BDE8B040B8
:10297000FEF766BB10B5FFF797FD40F60044C4F2C2
:10298000010420464FF480710122FEF759FB2046D6
:102990004FF400710122FEF753FBAE2000F06AF9FC
:1029A000D52000F067F9802000F064F9A82000F03D
:1029B00061F93F2000F05EF9D32000F05BF90020C0
:1029C00000F058F9402000F055F9A12000F052F92C
:1029D000C82000F04FF9DA2000F04CF9122000F086
:1029E00049F9812000F046F9CF2000F043F9D920C1
:1029F00000F040F9F12000F03DF9DB2000F03AF959
:102A0000302000F037F9A42000F034F9A62000F0BF
:102A100031F98D2000F02EF9142000F02BF9AF20B1
:102A200000F028F9BDE81040FFF7A8BE002B08BF52
:102A300070472DE9F04F81B05F1E1C4690468246DC
:102A400007EB010B981E5E4200254FF0180900901D
:102A500010E000BF0120B8FBF0F2ABEB050069F31A
:102A60005F02C1B2504600F029F80135A542A7F136
:102A700001071FD0E943B142ECD00098401B032866
:102A800002D2012008E000BF27F00302012000BFAE
:102A9000043A4FEA0010FBD1214411F00301DAD0CF
:102AA000012901D14000D6E7C200022908BF8200F7
:102AB0001046D0E701B0BDE8F04F70472DE9F04770
:102AC00080467E2000EB480017466FF0070240F07A
:102AD000B00002EBC104C0B2E5B200F0CBF82809A7
:102AE00000F11009484600F0C5F804F0080A504605
:102AF00000F0C0F844F6CA20C0F6000000EB071151
:102B00004FF60060CFF6FF70085CA1F5007600F08C
:102B1000EDF87078B778F478357900F0E7F8384652
:102B200000F0E4F8204600F0E1F8284600F0DEF876
:102B3000707900F0DBF8B07900F0D8F8F07900F0A7
:102B4000D5F84FF0FF3000EB480040F0B000C0B2C5
:102B500000F090F8484600F08DF8504600F08AF8F2
:102B6000307A00F0C3F8707A00F0C0F8B07A00F064
:102B7000BDF8F07A00F0BAF8307B00F0B7F8707B5F
:102B800000F0B4F8B07B00F0B1F8F07BBDE8F0479E
:102B900000F0ACB8002B08BF70472DE9F04F81B0B2
:102BA0001C4691468A468346981E5D425E1E00275B
:102BB00042F2107800901BE00120B9FBF0F04CF6D7
:102BC000CD41CCF6CC41A0FB0112D20802EB82022F
:102BD000A0EB420007EB0A0140F03000C2B2C9B2DC
:102BE0005846FFF76BFF0137A742A6F1010627D031
:102BF000F943A942E0D00098C01B032802D201206B
:102C000008E000BF26F00302012000BF043A00FBE9
:102C100008F0FBD1214411F00301CED0012903D1EA
:102C200000EB80004000C8E74FF47A72424302296B
:102C30004FF0640108BF00FB01F21046BDE700BF82
:102C400001B0BDE8F04F7047F0B581B0144612787E
:102C50006AB10D46064600277819C1B2D2B2304695
:102C6000FFF72CFF0137F8B2225C002AF4D101B043
:102C7000F0BD0000B0B540F60044C4F201040546C2
:102C800020464FF400710122FEF7DAF920464FF496
:102C900080710122FEF7D4F920464FF40071002222
:102CA000FEF7CEF920464FF480710022FEF7C8F9F6
:102CB0007820FFF7B3FD0020FFF7B0FD2846FFF7AF
:102CC000ADFD20464FF400710022FEF7B9F9204611
:102CD0004FF480710122FEF7B3F920464FF40071E2
:102CE0000122BDE8B040FEF7ABB90000B0B540F638
:102CF0000044C4F20104054620464FF4007101224D
:102D0000FEF79EF920464FF480710122FEF798F9F4
:102D100020464FF400710022FEF792F920464FF44E
:102D200080710022FEF78CF97820FFF777FD4020B4
:102D3000FFF774FD2846FFF771FD20464FF4007140
:102D40000022FEF77DF920464FF480710122FEF744
:102D500077F920464FF400710122BDE8B040FEF73C
:102D60006FB90000704700007047000010B50128DF
:102D70001AD1B1F1FF3F41DD40F60004C4F2010475
:102D800061B340F20010C2F2000000680022C1638B
:102D900004F580601021FEF753F92046202101221E
:102DA000BDE81040FEF74CB9B1F1FF3F3EDD40F603
:102DB0000004C4F2010489B140F20010C2F2000024
:102DC00000680022016420464021FEF739F92046C0
:102DD00080210122BDE81040FEF732B904F5806081
:102DE00010210022FEF72CF9204620210022FEF7B8
:102DF00027F920464021002226E000BF40F20010C3
:102E0000C2F20000006840F600044942C4F2010426
:102E1000C16304F5806010210122FEF711F92046FC
:102E200020210022BDE81040FEF70AB940F2001050
:102E3000C2F20000006840F600044942C4F20104F6
:102E40000164204640210122FEF7FAF82046802145
:102E50000022BDE81040FEF7F3B80000FEF7FCB812
:102E60007047000040F2B800C2F20000FEF7B0BEAA
:102E7000FEE7000000F001020A70C0F340024A7051
:102E8000C0F380028A70C0F3C002CA70C0F300129F
:102E90000A71C0F340124A71C0F38012C0098A71EE
:102EA000C87170472DE9F04F81B040F60044C4F27C
:102EB000010420464FF480610022FEF7C1F84FF470
:102EC000877000BF00BF00BF00BF00BF00BF00BFD2
:102ED00000BF00BF00BF00BF00BF00BF00BF00BFFA
:102EE00000BF00BF00BF00BF00BF00BF00BF00BFEA
:102EF00000BF00BF00BF00BF00BF00BF00BF00BFDA
:102F000000BF00BF00BF00BF00BF00BF00BF00BFC9
:102F100000BF00BF00BF00BF00BF00BF00BF00BFB9
:102F200000BF00BF00BF00BF00BF00BF00BF3638FA
:102F300000BFC7D120464FF40061FEF77BF8009038
:102F400020464FF480610122FEF77AF84FF4877033
:102F500000BF00BF00BF00BF00BF00BF00BF00BF79
:102F600000BF00BF00BF00BF00BF00BF00BF00BF69
:102F700000BF00BF00BF00BF00BF00BF00BF00BF59
:102F800000BF00BF00BF00BF00BF00BF00BF00BF49
:102F900000BF00BF00BF00BF00BF00BF00BF00BF39
:102FA00000BF00BF00BF00BF00BF00BF00BF00BF29
:102FB00000BF00BF00BF00BF00BF363800BFC7D191
:102FC00020464FF480610022FEF73AF84FF48770F4
:102FD00000BF00BF00BF00BF00BF00BF00BF00BFF9
:102FE00000BF00BF00BF00BF00BF00BF00BF00BFE9
:102FF00000BF00BF00BF00BF00BF00BF00BF00BFD9
:1030000000BF00BF00BF00BF00BF00BF00BF00BFC8
:1030100000BF00BF00BF00BF00BF00BF00BF00BFB8
:1030200000BF00BF00BF00BF00BF00BF00BF00BFA8
:1030300000BF00BF00BF00BF00BF363800BFC7D110
:1030400020464FF40061FDF7F5FF814620464FF41E
:1030500080610122FDF7F4FF4FF4877000BF00BFCD
:1030600000BF00BF00BF00BF00BF00BF00BF00BF68
:1030700000BF00BF00BF00BF00BF00BF00BF00BF58
:1030800000BF00BF00BF00BF00BF00BF00BF00BF48
:1030900000BF00BF00BF00BF00BF00BF00BF00BF38
:1030A00000BF00BF00BF00BF00BF00BF00BF00BF28
:1030B00000BF00BF00BF00BF00BF00BF00BF00BF18
:1030C00000BF00BF00BF363800BFC7D120464FF455
:1030D00080610022FDF7B4FF4FF4877000BF00BF8E
:1030E00000BF00BF00BF00BF00BF00BF00BF00BFE8
:1030F00000BF00BF00BF00BF00BF00BF00BF00BFD8
:1031000000BF00BF00BF00BF00BF00BF00BF00BFC7
:1031100000BF00BF00BF00BF00BF00BF00BF00BFB7
:1031200000BF00BF00BF00BF00BF00BF00BF00BFA7
:1031300000BF00BF00BF00BF00BF00BF00BF00BF97
:1031400000BF00BF00BF363800BFC7D120464FF4D4
:103150000061FDF76FFF824620464FF48061012237
:10316000FDF76EFF4FF4877000BF00BF00BF00BFC8
:1031700000BF00BF00BF00BF00BF00BF00BF00BF57
:1031800000BF00BF00BF00BF00BF00BF00BF00BF47
:1031900000BF00BF00BF00BF00BF00BF00BF00BF37
:1031A00000BF00BF00BF00BF00BF00BF00BF00BF27
:1031B00000BF00BF00BF00BF00BF00BF00BF00BF17
:1031C00000BF00BF00BF00BF00BF00BF00BF00BF07
:1031D00000BF363800BFC7D120464FF480610022BF
:1031E000FDF72EFF4FF4877000BF00BF00BF00BF88
:1031F00000BF00BF00BF00BF00BF00BF00BF00BFD7
:1032000000BF00BF00BF00BF00BF00BF00BF00BFC6
:1032100000BF00BF00BF00BF00BF00BF00BF00BFB6
:1032200000BF00BF00BF00BF00BF00BF00BF00BFA6
:1032300000BF00BF00BF00BF00BF00BF00BF00BF96
:1032400000BF00BF00BF00BF00BF00BF00BF00BF86
:1032500000BF363800BFC7D120464FF40061FDF7EC
:10326000E9FE834620464FF480610122FDF7E8FE27
:103270004FF4877000BF00BF00BF00BF00BF00BF9A
:1032800000BF00BF00BF00BF00BF00BF00BF00BF46
:1032900000BF00BF00BF00BF00BF00BF00BF00BF36
:1032A00000BF00BF00BF00BF00BF00BF00BF00BF26
:1032B00000BF00BF00BF00BF00BF00BF00BF00BF16
:1032C00000BF00BF00BF00BF00BF00BF00BF00BF06
:1032D00000BF00BF00BF00BF00BF00BF00BF363847
:1032E00000BFC7D120464FF480610022FDF7A8FE41
:1032F0004FF4877000BF00BF00BF00BF00BF00BF1A
:1033000000BF00BF00BF00BF00BF00BF00BF00BFC5
:1033100000BF00BF00BF00BF00BF00BF00BF00BFB5
:1033200000BF00BF00BF00BF00BF00BF00BF00BFA5
:1033300000BF00BF00BF00BF00BF00BF00BF00BF95
:1033400000BF00BF00BF00BF00BF00BF00BF00BF85
:1033500000BF00BF00BF00BF00BF00BF00BF3638C6
:1033600000BFC7D120464FF40061FDF763FE06465B
:1033700020464FF480610122FDF762FE4FF4877012
:1033800000BF00BF00BF00BF00BF00BF00BF00BF45
:1033900000BF00BF00BF00BF00BF00BF00BF00BF35
:1033A00000BF00BF00BF00BF00BF00BF00BF00BF25
:1033B00000BF00BF00BF00BF00BF00BF00BF00BF15
:1033C00000BF00BF00BF00BF00BF00BF00BF00BF05
:1033D00000BF00BF00BF00BF00BF00BF00BF00BFF5
:1033E00000BF00BF00BF00BF00BF363800BFC7D15D
:1033F00020464FF480610022FDF722FE4FF48770D3
:1034000000BF00BF00BF00BF00BF00BF00BF00BFC4
:1034100000BF00BF00BF00BF00BF00BF00BF00BFB4
:1034200000BF00BF00BF00BF00BF00BF00BF00BFA4
:1034300000BF00BF00BF00BF00BF00BF00BF00BF94
:1034400000BF00BF00BF00BF00BF00BF00BF00BF84
:1034500000BF00BF00BF00BF00BF00BF00BF00BF74
:1034600000BF00BF00BF00BF00BF363800BFC7D1DC
:1034700020464FF40061FDF7DDFD074620464FF47E
:1034800080610122FDF7DCFD4FF4877000BF00BFB3
:1034900000BF00BF00BF00BF00BF00BF00BF00BF34
:1034A00000BF00BF00BF00BF00BF00BF00BF00BF24
:1034B00000BF00BF00BF00BF00BF00BF00BF00BF14
:1034C00000BF00BF00BF00BF00BF00BF00BF00BF04
:1034D00000BF00BF00BF00BF00BF00BF00BF00BFF4
:1034E00000BF00BF00BF00BF00BF00BF00BF00BFE4
:1034F00000BF00BF00BF363800BFC7D120464FF421
:1035000080610022FDF79CFD4FF4877000BF00BF73
:1035100000BF00BF00BF00BF00BF00BF00BF00BFB3
:1035200000BF00BF00BF00BF00BF00BF00BF00BFA3
:1035300000BF00BF00BF00BF00BF00BF00BF00BF93
:1035400000BF00BF00BF00BF00BF00BF00BF00BF83
:1035500000BF00BF00BF00BF00BF00BF00BF00BF73
:1035600000BF00BF00BF00BF00BF00BF00BF00BF63
:1035700000BF00BF00BF363800BFC7D120464FF4A0
:103580000061FDF757FD054620464FF4806101229A
:10359000FDF756FD4FF4877000BF00BF00BF00BFAE
:1035A00000BF00BF00BF00BF00BF00BF00BF00BF23
:1035B00000BF00BF00BF00BF00BF00BF00BF00BF13
:1035C00000BF00BF00BF00BF00BF00BF00BF00BF03
:1035D00000BF00BF00BF00BF00BF00BF00BF00BFF3
:1035E00000BF00BF00BF00BF00BF00BF00BF00BFE3
:1035F00000BF00BF00BF00BF00BF00BF00BF00BFD3
:1036000000BF363800BFC7D120464FF4806100228A
:10361000FDF716FD4FF4877000BF00BF00BF00BF6D
:1036200000BF00BF00BF00BF00BF00BF00BF00BFA2
:1036300000BF00BF00BF00BF00BF00BF00BF00BF92
:1036400000BF00BF00BF00BF00BF00BF00BF00BF82
:1036500000BF00BF00BF00BF00BF00BF00BF00BF72
:1036600000BF00BF00BF00BF00BF00BF00BF00BF62
:1036700000BF00BF00BF00BF00BF00BF00BF00BF52
:1036800000BF363800BFC7D120464FF40061FDF7B8
:10369000D1FC804620464FF480610122FDF7D0FC2A
:1036A0004FF4877000BF00BF00BF00BF00BF00BF66
:1036B00000BF00BF00BF00BF00BF00BF00BF00BF12
:1036C00000BF00BF00BF00BF00BF00BF00BF00BF02
:1036D00000BF00BF00BF00BF00BF00BF00BF00BFF2
:1036E00000BF00BF00BF00BF00BF00BF00BF00BFE2
:1036F00000BF00BF00BF00BF00BF00BF00BF00BFD2
:1037000000BF00BF00BF00BF00BF00BF00BF363812
:1037100000BFC7D1009840EA490040EA8A0040EA69
:10372000CB0040EA061040EA471040EA851040EA24
:10373000C810C0B201B0BDE8F08F000090B0FDF736
:1037400099FC00240120CDE90B44CDE90944069001
:103750000A904FF4E0104FF4803102250F9006A834
:10376000CDE90714CDE90D51FDF70EFE20B1EFF3C1
:10377000108072B6FEE700BF0F20CDE901054FF4BF
:103780008060CDE9040401A802210394FDF71AFD2D
:1037900020B1EFF3108072B6FEE700BF40F60044A0
:1037A000C4F20104FFF7E6F8FEF7B8FCFEF77CFE72
:1037B000FEF700FFFEF736FF40F20015C2F20005EB
:1037C00028460821FEF738FC28460C21FEF734FC79
:1037D00045F2CA02C0F6000201200321FFF734FAC5
:1037E00040F27808C2F2000840F290060025A4F5E5
:1037F000806008F10107C2F20006C4F27015009063
:1038000000984FF48071FDF715FC00283ED10A2086
:10381000FDF7F4FA00984FF48071FDF70BFCA8BB9C
:103820000220012166A2FFF70FFA0320012169A2FD
:10383000FFF70AFA20464FF48041FDF7FBFBC8B1C1
:10384000FFF730FB394688F80000FFF713FBFDF760
:1038500027F9FDF761FA98F80020032005210323DA
:10386000FFF798F998F80020032009210823FFF7B3
:10387000DDF8DFE7FEF782FF45F2CA0201200321EF
:10388000C0F60002FFF7E0F9FEF75AFF20462021BC
:10389000FDF7D0FB002840F085800A20FDF7AEFA46
:1038A00020462021FDF7C6FB00287BD1FEF766FFEE
:1038B0000120012149A2FFF7C7F901201421FFF7D8
:1038C00055FA0220142100BFFFF750FA20464FF4AA
:1038D0008041FDF7AFFB002858D0FEF705FDFEF74D
:1038E0003DFC3068294600F068FE0028EED101203A
:1038F0006FF00E01FFF73AFA02206FF00E01FFF7AA
:1039000035FA4FF41670FDF779FAFEF719FFFEF756
:1039100079FCFEF755FD40F29400C2F20000D0F8A9
:10392000009040F29800C2F20000D0F800A0484693
:10393000514600F050FE00284FF0020B4846514619
:1039400018BF4FF0010B00F046FE0028A1463C4690
:103950002F4635464FF0010658464FF0140118BF68
:103960000226FFF703FA30460A212E463D46274637
:103970004C46FFF7FBF94FF47A70FDF73FFA012050
:103980000F21FFF7F3F902200F219DE7FEF7F6FE66
:1039900045F2CA0201200321C0F60002FFF754F9E4
:1039A000FEF7CEFE20464FF40041FDF743FB002812
:1039B0007FF426AF032001210CA2FFF745F91FE792
:1039C000477261792053656E736F72204D6F646525
:1039D000000000004E554D3A00000000556C747216
:1039E00061736F6E6963204D6F64650062757474F6
:1039F0006F6E332070726573730000005FEA400CD5
:103A000008BF91F0000F4FEA8C234FEAC12243EA2E
:103A100051514FEA1C5018BF00F5F0404FEA3000FA
:103A200018BF41F000415FEA6C5C00F02980BCF1F6
:103A3000FF3F08BF40F080407047130C06BF1204E0
:103A40004FF0100C4FF0000C130E04BF12020CF1DB
:103A5000080C130F04BF12010CF1040C930F04BFE8
:103A600092000CF1020CD30F04BF52000CF1010CB8
:103A700011464FF00002A0F11F00A0EB0C007047B0
:103A800011F0004F08BF704731F000413FF4D5AF4F
:103A90000B0C06BF09044FF0100C4FF0000C0B0E7E
:103AA00004BF09020CF1080C0B0F04BF09010CF153
:103AB000040C8B0F04BF89000CF1020CCB0F04BF68
:103AC00049000CF1010CCCF1200322FA03F341EA86
:103AD000030102FA0CF2A0EB0C0000F101007047A8
:103AE00023F07F4720F07F4C80EA030000F0004085
:103AF000ACEB070303F57C5303F1FF032DE9804989
:103B000009B44FEA144324EA03484FEA154B25EA67
:103B10000B4E0FF2042606EB13273E7803FB0667D5
:103B2000C7F5000707FB06F64FEAD64606F1020680
:103B30004FEA543707FB066CCCF1005C4FEA1C4798
:103B40002CEA074C0CFB06F507FB06F404EB1546C4
:103B50004FEA961649085FEA320234BF00204FF060
:103B600000404FEAD13706FB07FC4FEA1C4C0CFB28
:103B70000BF7D21B03FB0CF761EB07010CFB0EF7F5
:103B8000B0EB074072EB17420CFB08F734BFA2EB17
:103B90000742B2EB074261EB17414FEA0C444FEA90
:103BA000910706FB07FC4FEA1C4C0CFB0BF7B0EB34
:103BB000C74072EB573203FB0CF734BFA2EBC7428E
:103BC000B2EBC74261EB57310CFB0EF7B0EBC7000D
:103BD00072EB57720CFB08F734BFA2EBC702B2EBD3
:103BE000C70261EB57714FEA816141EA92114FEAD6
:103BF000826242EA90124FEA806004EBCC04039F99
:103C00004FEAD13706FB07FC4FEA1C4C0CFB0BF7C5
:103C1000D21B03FB0CF761EB07010CFB0EF7B0EBBB
:103C2000074072EB17420CFB08F734BFA2EB0742C8
:103C3000B2EB074261EB17414FEA8C5504EB9C2431
:103C40004FEA910706FB07FC4FEA1C4C0CFB0BF7F5
:103C5000B0EBC74072EB573203FB0CF734BFA2EB5B
:103C6000C742B2EBC74261EB57310CFB0EF7B0EB2A
:103C7000C70072EB57720CFB08F734BFA2EBC70208
:103C8000B2EBC70261EB57714FEA816141EA9211D1
:103C90004FEA826242EA90124FEA806015EB4C25AF
:103CA00044F100044FEAD13706FB07FC4FEA1C4CF5
:103CB0000CFB0BF7D21B03FB0CF761EB07010CFBB2
:103CC0000EF7B0EB074072EB17420CFB08F734BF5E
:103CD000A2EB0742B2EB074261EB17414FEA813199
:103CE00041EA92414FEA823242EA90424FEA803002
:103CF0004FEA0C7615EB1C1544F1000448EA034327
:103D00004EEA0B484FF0000EB2EB080C71EB0307C4
:103D100024BF624639464EEB0E0E4FF0000B0018E2
:103D2000524149414BEB0B0BB2EB080C71EB030713
:103D30007BF1000B24BF624639464EEB0E0E4FF06E
:103D4000000B0018524149414BEB0B0BB2EB080C36
:103D500071EB03077BF1000B24BF624639464EEB43
:103D60000E0E51EA020718BF46F0010616EB0E765A
:103D700055F1000254F1000103D5BDE88901BDE809
:103D80000088BDE88901BDE80048B619524141EB01
:103D90000101A3F10103704780807F7E7D7C7B7AE7
:103DA0007978777676757473727171706F6E6E6DE7
:103DB0006C6C6B6A6A69686867666665646463638D
:103DC00062616160605F5F5E5E5D5D5C5C5B5B5A13
:103DD0005A59595858575756565555555454535380
:103DE00052525251515050504F4F4F4E4E4D4D4DDB
:103DF0004C4C4C4B4B4B4A4A4A4949494848484726
:103E00004747474646464545454444444443434363
:103E100043424242424141419C46002B30D477000C
:103E20002BD04FEA37071CB503B44FF010004FF00A
:103E30001001BAF1000F06D0BCF1000FDCBF40F05A
:103E4000080040F008014FF000000FBCBDE8104032
:103E50000BF1010BBBF1010F08BF5FEA170722BF8F
:103E600012F1010211F101014FF0004143F1000391
:103E700000F0004043EA00007047F9D35708D0E74C
:103E800046EA06464FEA164613F1400F1FDD13F1CE
:103E9000200FDFBF16430A46002120335B42BED00D
:103EA000C3F1200746EA06464FEA164602FA07F72C
:103EB00046EA070622FA03F2C3F1200701FA07F7E0
:103EC00042EA070221FA03F14FF00003A7E746EAAE
:103ED000020646EA06464FEA164646EA0106BCBF17
:103EE00046EA0646360C4FF000034FF000024FF052
:103EF000000194E72DE9804C70B49A46934691E80E
:103F0000380007C831EA400C48BF34EA430C03D5F7
:103F1000FFF7E6FDFFF780FFF0BCBDE8008C2DE960
:103F2000804C70B49A46934691E8380007C810F068
:103F3000804F08BF13F0804F03D100F005F8FFF762
:103F40006BFFF0BCBDE8008C20F07F4723F07F4C76
:103F500080EA030000F0004007EB0C03A3F57C535C
:103F6000A3F1FE0392F0000F00F0B38095F0000F74
:103F700000F077802DE901494FEA114021EA00481D
:103F80004FEA144624EA064700FB06FC08FB06F647
:103F900007FB08F818EB06484CEB164C00FB07F73C
:103FA00018EB07484CEB17404FEA124B22EA0B4E36
:103FB0004FEA154625EA06470BFB06FC0EFB06F604
:103FC00007FB0EFE1EEB064E4CEB164C0BFB07F7E9
:103FD0001EEB074E4CEB174B18EB0B0840F10000A3
:103FE00018EB0E0B58EB000840F100008F1A4FF051
:103FF00000014FF000063CBFC943661B14BFB5EB80
:10400000040C00213CBFC943F61B4FEA174427EAC2
:1040100004454FEA1C472CEA074C04FB076205FBEA
:1040200007F70CFB05F616EB074642EB174204FBBD
:104030000CFC16EB0C4642EB1C421BEB060658EB45
:10404000020241414EEA8E0E46EA9E0601D5BDE8C7
:104050000189B619524141EB0101A3F10103BDE809
:1040600001894FEA144524EA05464FEA114721EA3F
:10407000074C05FB07F406FB07F70CFB06F111EBF9
:10408000074144EB174405FB0CFC11EB0C4144EBDE
:104090001C444FEA124722EA074C05FB07F206FBD5
:1040A00007F70CFB06F616EB074642EB174205FB3B
:1040B0000CFC16EB0C4642EB1C456A1854F100014F
:1040C00048BF7047B619524141EB0101A3F101030A
:1040D000704795F0000F37D04FEA114221EA0246AF
:1040E0004FEA144724EA074C02FB07F106FB07F7E7
:1040F0000CFB06F414EB074441EB174102FB0CFCEC
:1041000014EB0C4441EB1C414FEA154725EA074CE0
:1041100002FB07F506FB07F70CFB06F616EB074656
:1041200045EB174502FB0CFC16EB0C4645EB1C421D
:10413000121951F1000148BF7047B619524141EBC5
:104140000101A3F1010370474FEA144524EA054633
:104150004FEA114721EA074C05FB07F106FB07F779
:104160000CFB06F212EB074241EB174105FB0CFC7E
:1041700012EB0C4251EB1C414FF0000648BF704758
:10418000921841EB0101A3F101037047490050EA85
:10419000C12018BF04204A0D18BF40F0010040F2B2
:1041A000FF72B2EB515F08BF40F00200012808BF68
:1041B0000520704730380A2801D2012070470020BE
:1041C0007047000010B500290AD00878002807D0F1
:1041D00005487844FCF712FC002801D0002010BDEF
:1041E0000248784410BD00002E0F0000260F00008A
:1041F00021F0004201F00043A2F16052B2F5801FAD
:1042000028BFD2F17F6C0BD95FEA001C43EAC202DF
:1042100042EB507018BF704728BF20F00100704774
:10422000B2F5801FBCBF184670474FEA410C1CF521
:10423000001F02D2084600F078BB70B500F0C6F847
:1042400000000089FFF7F6BF4FF00040A0F58000A6
:104250007047B0FA80F310FA03F10AD0C3F11D03DE
:1042600003F580634FEA03524FEA415002EBD1213C
:1042700070474FF00000704770B5DFF848C11CEA86
:10428000111E1EBF1CEA13159EEA0C0F95EA0C0FB7
:1042900000F06F8081EA03044EEAD47EAE4421EA46
:1042A0004C1123EA4C1341F4801143F48013AEF116
:1042B0007F7EA1FB024CA0FB0365361955EB0C0574
:1042C000A1FB034C4CF10003A0FB021C16EB0C06F7
:1042D000654153F10003094218BF46F0010613F48B
:1042E000007F0BD14FEA03314FEA053041EA155107
:1042F00040EA165034036FF003020AE04FEAC3218C
:104300004FEAC52041EA555140EA5650F4026FF099
:10431000020202EB2E4201EB025585EACE710AD071
:104320005FEA440C18BF24F0004450F1000041F152
:10433000000120EAD47040F2FE7C624500D270BDDC
:10434000A84214BF4FF080444FF04044002E08BFF5
:104350000024BEF1806FA8BFA1F1C041BDE870404C
:1043600080F2828001F1C04101F000414FF0000075
:1043700070470CEA13159EEA0C0F18BF95EA0C0F54
:1043800006D081EA030E4FF000000EF0004170BD30
:1043900000F01CF88900013E00F007B800F009B8F1
:1043A0004FEA430C5FEA5C5C08D081EA030100F04D
:1043B0005BB84FEA410C5FEA5C5CF6D102494FF012
:1043C000000070470000FF070000F87F0EF1020EAA
:1043D0002EF0030E5EF8046B364205D4012A43EB3F
:1043E000030515F5001F12D8012841EB010C1CF53F
:1043F000001F0CD80ED14FEAD17C0CEB4C0C0CF109
:10440000020C15F5001F08BF4CEBD37C04E04FF005
:10441000080C01E04FEAD37C0CEB4C0526FA05F6BC
:1044200006F00706B6F1040C06D20EEB860CBDE8CA
:1044300070404CF0010C6047DFE80CF0090B020201
:104440004FF00041A1F500214FF0000070BD19466A
:104450001046012851EB010418BFD4F5001484BFA5
:10446000002001F0004170BD0808A0F500114FEADE
:104470003101704743004FEAD30C4FEA3C0C4340F4
:104480001FBF40070CF1605113F0FE4F70471CF046
:10449000006F03D10CF00041002070470CF0004386
:1044A00043EA507040EACC0010B500F0F8F900BFC4
:1044B000000000924FEA0001FFF7D6BF4FF0004125
:1044C000A1F500214FF000007047000090EA010FB5
:1044D00048BF81F0004100F13482421A3CBF801A8B
:1044E00089184FEAD052A2EBD1534FF07F4C1CEA0F
:1044F000410F18BF9CEA026F00F03B804FF0004C68
:104500004CEA00204CEA012121FA03FC10EB0C0CD0
:104510001ED202F1FF325FEA1C2040EBC25038BFCE
:1045200070471CF07F0F4FEA400C18BFBCF17F4F63
:1045300038BF7047C3F12003994008BF20F0010045
:10454000BCF17F4F38BF7047A0F1C04000F0EDB91B
:104550004FEA3C00000A40EBC25028BF1CF0FF0F9E
:104560004FEA400CE6D018BFBCF17F4F38BF704710
:10457000EAE79CEA026F05D010EA5C0F08BF00F082
:104580000040704710B500F08AF900BF64FBBE3EE2
:1045900010B500F033F80CBF0120002010BD10B59D
:1045A00000F02CF814BF0120002010BD10B500F061
:1045B0008DF88CBF0120002010BD10B500F086F8EA
:1045C0002CBF0120002010BD10B500F0B3F894BF3F
:1045D0000120002010BD10B500F0ACF834BF012060
:1045E000002010BD401058BFC0F14040491058BFD6
:1045F000C1F140418142EFF30080704750EA010C65
:1046000000F113801CF5000F58BFBCF5000F01D45A
:104610008842704707D710F5000F58BF11F5000FFB
:1046200015D488427047894270471CF5000F04D5A5
:10463000BCF5000FF7D5814270474FF0807C1CEB32
:10464000400F38BF1CEB410F01D28142704710B5BB
:1046500000F025F9922449004FF000504FF08051AE
:10466000FFF7C0BF41000B0ED3F19E0208D950F4F2
:1046700000034FEA032323FA02F048BF4042704789
:1046800010B500F00CF900BF49922480002070475B
:104690006FF0004282EA20007047000010F00041F5
:1046A00048BF4042B0FA80F310FA03F2C3F19D0311
:1046B0000BD051EAC35101EB1220530638BF7047AB
:1046C00000F1010008BF20F00100704750EA010C22
:1046D00000F113801CF5000F58BFBCF5000F01D48A
:1046E0008842704707D710F5000F58BF11F5000F2B
:1046F00015D488427047894270471CF5000F04D5D5
:10470000BCF5000FF7D5814270474FF0807C1CEB61
:10471000400F38BF1CEB410F01D28142704710B5EA
:1047200000F0BDF8922449004FF080504FF0005146
:10473000FFF758BF50EA010C00F113801CF5000F81
:1047400058BFBCF5000F01D48842704707D710F559
:10475000000F58BF11F5000F15D4884270478942E9
:1047600070471CF5000F04D5BCF5000FF7D581424A
:1047700070474FF0807C1CEB400F38BF1CEB410FA3
:1047800001D28142704710B500F089F892244900A7
:104790004FF000504FF08051FFF724BF4FF47F0CD3
:1047A0001CEAD0121EBF1CEAD11392EA0C0F93EA46
:1047B0000C0F00F0478090EA010F48BF42F480726E
:1047C0004FF0004C4CEA00204CEA012102EB0302BE
:1047D000A0FB0113A2F50002002918BF43F001035A
:1047E0005B0028BF4FEA330342EB22425FEA132CFF
:1047F0004CEBC2502EBFBCEB436FB2F57C0F704741
:104800004FEA036CBCF1004F08BF20F00100B2F585
:104810007C0F38BF70470BD582F0FF0212F5803F46
:10482000C8BF704700F1C040D8BF00F000407047DB
:1048300000F5000C5FEA4C0C48BF7047B0F1C04077
:1048400000F073B80CEAD11390EA010F48BF42F4AC
:104850008072624538BF634504D280EA010000F0EF
:104860000040704710B500F01AF800BF8900013E03
:1048700000F007B800F009B85FEA410C5FEA1C6C71
:1048800008D080EA010000F050B85FEA400C5FEA0F
:104890001C6CF6D14FF00040A0F5800070470EF17F
:1048A000020E2EF0030E5EF8044B244204D44FEAAD
:1048B0004102B2F17F4F11D84FEA4003B3F17F4F6D
:1048C0000CD80ED14FEAD07C0CEB4C0C0CF1020C46
:1048D000B2F17F4F08BF4CEBD17C04E04FF0080CE5
:1048E00001E04FEAD17C0CEB4C0324FA03F404F012
:1048F0000704B4F1040C06D20EEB840CBDE81040A2
:104900004CF0010C6047DFE80CF0070802024FF0A2
:104910000040A0F5800010BD0846420018BFD2F14B
:10492000807288BF00F0004010BDFF2141EAD050E6
:10493000C005704790EA010F48BF81F000413FF584
:10494000CCAD421A04D882F00042A0EB0200114420
:104950004FEAD052A2EBD1534FF07F4C1CEA410FEB
:1049600018BF9CEA026F4AD04FF0004C4CEA00207E
:104970004CEA012121FA03FCB0EB0C0C0FD412F02D
:10498000FE0F36D05FEA4C001DD5001240EBC2503E
:1049900038BF70471CF03F0F18BF70470BE05FEA4D
:1049A0001C20A2F1010240EBC25038BF70471CF03E
:1049B0007F0F18BF7047C3F12003994014BF401EFA
:1049C00020F0010070474FEA1223800808BF7047AB
:1049D000B0FA80FCA2EB0C02CCF1280C60FA0CF0CF
:1049E00093EA122F04BF00EBC25070474FEAC37026
:1049F0007047130A5FEADC1008BF7047F6E79CEACD
:104A0000026F04D010EA5C0F08BF0020704710B599
:104A1000FFF745FF40DFF63E81F000407047FBF7AF
:104A20006BBD000002400000000000A0000000007C
:104A300005400000000000C8000000000C4000001D
:104A40000000409C00000000194000000020BCBE97
:104A50000000000034400000BFC91B8E00000004AD
:104A6000B5400000504BCFD06607E2CF01000000F8
:104A70006C4100003E8251AADFEEA7340100000025
:104A8000D9420000DCB5A0E23A301F97FFFFFFFFDC
:104A9000B4450000FD25A0C8E9A3C14FFFFFFFFFFB
:104AA000FF3F00000000008000000000FF3F00000A
:104AB0000000008000000000000000000000000076
:104AC00001020304060708090102000000000000BB
:104AD00000000000000000000000000000F80000DE
:104AE0000000000000333000000000100C06100C25
:104AF0000600000000000000000040C07840C078C0
:104B00004000043F04043F040400007088FC0830A7
:104B10000000001820FF211E0000F008F000E0183F
:104B2000000000211C031E211E0000F008887000F8
:104B300000001E2123241927211010160E0000004A
:104B400000000000000000000000000000E0180469
:104B50000200000000071820400000020418E000D6
:104B600000000040201807000000404080F0804016
:104B700040000202010F01020200000000F00000EC
:104B800000000101011F0101010000000000000000
:104B9000000080B070000000000000000000000075
:104BA00000000001010101010101000000000000FE
:104BB00000000030300000000000000000008060B5
:104BC0001804006018060100000000E0100808103A
:104BD000E000000F102020100F00001010F800005F
:104BE00000000020203F20200000007008080888F6
:104BF00070000030282422213000003008888848C6
:104C000030000018202020110E000000C02010F8F5
:104C1000000000070424243F240000F808888808C6
:104C200008000019212020110E0000E010888818CB
:104C30000000000F112020110E0000380808C838AD
:104C400008000000003F000000000070880808888D
:104C50007000001C222121221C0000E01008081016
:104C6000E0000000312222110F00000000C0C0004F
:104C70000000000000303000000000000080000054
:104C80000000000080600000000000008040201054
:104C9000080000010204081020004040404040404D
:104CA00040000404040404040400000810204080B0
:104CB00000000020100804020100007048080808E5
:104CC000F0000000003036010000C030C828E810B5
:104CD000E0000718272423140B000000C038E00070
:104CE0000000203C23020227382008F888888870BA
:104CF0000000203F202020110E00C03008080808C6
:104D00003800071820202010080008F808080810AC
:104D1000E000203F202020100F0008F88888E808D5
:104D20001000203F20202320180008F88888E80879
:104D30001000203F200003000000C03008080838A1
:104D4000000007182020221E020008F808000008B2
:104D5000F808203F210101213F20000808F8080839
:104D600000000020203F2020000000000808F80874
:104D70000800C08080807F00000008F888C02818E4
:104D80000800203F20012638200008F80800000015
:104D90000000203F20202020300008F8F800F8F81C
:104DA0000800203F003F003F200008F830C0000806
:104DB000F808203F200007183F00E01008080810FE
:104DC000E0000F10202020100F0008F80808080845
:104DD000F000203F210101010000E0100808081048
:104DE000E0000F18242438504F0008F8888888887D
:104DF0007000203F2000030C302000708808080855
:104E000038000038202121221C00180808F8080862
:104E100018000000203F2000000008F808000008EB
:104E2000F808001F202020201F000878880000C8F4
:104E30003808000007380E010000F80800F80008E4
:104E4000F800033C0700073C0300081868808068EE
:104E5000180820302C03032C30200838C800C8382C
:104E600008000000203F2000000010080808C83893
:104E700008002038262120201800000000FE020231
:104E800002000000007F40404000000C30C00000E5
:104E90000000000000010638C00000020202FE000F
:104EA0000000004040407F000000000004020202B9
:104EB00004000000000000000000000000000000EE
:104EC00000008080808080808080000202040000DA
:104ED00000000000000000000000000080808080D2
:104EE00000000019242222223F2008F800808000C0
:104EF0000000003F112020110E0000000080808083
:104F00000000000E11202020110000000080808889
:104F1000F800000E112020103F20000080808080CB
:104F20000000001F222222221300008080F08888C7
:104F300088180020203F2020000000008080808012
:104F40008000006B94949493600008F80080808047
:104F50000000203F210000203F20008098980000A2
:104F600000000020203F20200000000000809898D2
:104F7000000000C08080807F000008F80000808072
:104F80008000203F24022D302000000808F8000097
:104F900000000020203F2020000080808080808052
:104FA0008000203F20003F20003F808000808080E4
:104FB0000000203F210000203F20000080808080F2
:104FC0000000001F202020201F0080800080800023
:104FD000000080FFA12020110E00000000808080D2
:104FE0008000000E112020A0FF8080808000808043
:104FF000800020203F212000010000008080808070
:1050000080000033242424241900008080E0808064
:1050100000000000001F20200000808000000080B1
:105020008000001F202020103F2080808000008012
:10503000808000010E300806010080800080008022
:1050400080800F300C030C300F00008080008080C7
:1050500080000020312E0E312000808080000080F2
:10506000808080818E7018060100008080808080A2
:1050700080000021302C2221300000000000807CC4
:10508000020200000000003F404000000000FF005E
:10509000000000000000FF0000000002027C800011
:1050A00000000040403F0000000000060101020235
:1050B00004040000000000000000020304050607CD
:1050C00008090A0B0C0D0E0F101046696E616C205A
:1050D00044657369676E00252E316620000000006C
:1050E00020510008000000201800000050010008B6
:1050F000385100081800002038070000700100082F
:105100001C00000043000000F8FFFFFF0C0000003F
:105110000E0000000F0000002E0000000000000044
:105120000100000010000000140000001E0000003C
:085130000024F400000000005F
:04000005080000ED02
:00000001FF
